{
  "_format": "hh-sol-artifact-1",
  "contractName": "ICRC99NFT",
  "sourceName": "contracts/ICRC99NFT.sol",
  "abi": [
    {
      "inputs": [
        {
          "internalType": "string",
          "name": "_name",
          "type": "string"
        },
        {
          "internalType": "string",
          "name": "_symbol",
          "type": "string"
        }
      ],
      "stateMutability": "nonpayable",
      "type": "constructor"
    },
    {
      "inputs": [
        {
          "internalType": "address",
          "name": "sender",
          "type": "address"
        },
        {
          "internalType": "uint256",
          "name": "tokenId",
          "type": "uint256"
        },
        {
          "internalType": "address",
          "name": "owner",
          "type": "address"
        }
      ],
      "name": "ERC721IncorrectOwner",
      "type": "error"
    },
    {
      "inputs": [
        {
          "internalType": "address",
          "name": "operator",
          "type": "address"
        },
        {
          "internalType": "uint256",
          "name": "tokenId",
          "type": "uint256"
        }
      ],
      "name": "ERC721InsufficientApproval",
      "type": "error"
    },
    {
      "inputs": [
        {
          "internalType": "address",
          "name": "approver",
          "type": "address"
        }
      ],
      "name": "ERC721InvalidApprover",
      "type": "error"
    },
    {
      "inputs": [
        {
          "internalType": "address",
          "name": "operator",
          "type": "address"
        }
      ],
      "name": "ERC721InvalidOperator",
      "type": "error"
    },
    {
      "inputs": [
        {
          "internalType": "address",
          "name": "owner",
          "type": "address"
        }
      ],
      "name": "ERC721InvalidOwner",
      "type": "error"
    },
    {
      "inputs": [
        {
          "internalType": "address",
          "name": "receiver",
          "type": "address"
        }
      ],
      "name": "ERC721InvalidReceiver",
      "type": "error"
    },
    {
      "inputs": [
        {
          "internalType": "address",
          "name": "sender",
          "type": "address"
        }
      ],
      "name": "ERC721InvalidSender",
      "type": "error"
    },
    {
      "inputs": [
        {
          "internalType": "uint256",
          "name": "tokenId",
          "type": "uint256"
        }
      ],
      "name": "ERC721NonexistentToken",
      "type": "error"
    },
    {
      "inputs": [
        {
          "internalType": "address",
          "name": "owner",
          "type": "address"
        }
      ],
      "name": "OwnableInvalidOwner",
      "type": "error"
    },
    {
      "inputs": [
        {
          "internalType": "address",
          "name": "account",
          "type": "address"
        }
      ],
      "name": "OwnableUnauthorizedAccount",
      "type": "error"
    },
    {
      "anonymous": false,
      "inputs": [
        {
          "indexed": true,
          "internalType": "address",
          "name": "owner",
          "type": "address"
        },
        {
          "indexed": true,
          "internalType": "address",
          "name": "approved",
          "type": "address"
        },
        {
          "indexed": true,
          "internalType": "uint256",
          "name": "tokenId",
          "type": "uint256"
        }
      ],
      "name": "Approval",
      "type": "event"
    },
    {
      "anonymous": false,
      "inputs": [
        {
          "indexed": true,
          "internalType": "address",
          "name": "owner",
          "type": "address"
        },
        {
          "indexed": true,
          "internalType": "address",
          "name": "operator",
          "type": "address"
        },
        {
          "indexed": false,
          "internalType": "bool",
          "name": "approved",
          "type": "bool"
        }
      ],
      "name": "ApprovalForAll",
      "type": "event"
    },
    {
      "anonymous": false,
      "inputs": [
        {
          "indexed": false,
          "internalType": "uint256",
          "name": "_fromTokenId",
          "type": "uint256"
        },
        {
          "indexed": false,
          "internalType": "uint256",
          "name": "_toTokenId",
          "type": "uint256"
        }
      ],
      "name": "BatchMetadataUpdate",
      "type": "event"
    },
    {
      "anonymous": false,
      "inputs": [
        {
          "indexed": false,
          "internalType": "uint256",
          "name": "_tokenId",
          "type": "uint256"
        }
      ],
      "name": "MetadataUpdate",
      "type": "event"
    },
    {
      "anonymous": false,
      "inputs": [
        {
          "indexed": true,
          "internalType": "address",
          "name": "previousOwner",
          "type": "address"
        },
        {
          "indexed": true,
          "internalType": "address",
          "name": "newOwner",
          "type": "address"
        }
      ],
      "name": "OwnershipTransferred",
      "type": "event"
    },
    {
      "anonymous": false,
      "inputs": [
        {
          "indexed": true,
          "internalType": "address",
          "name": "from",
          "type": "address"
        },
        {
          "indexed": true,
          "internalType": "address",
          "name": "to",
          "type": "address"
        },
        {
          "indexed": true,
          "internalType": "uint256",
          "name": "tokenId",
          "type": "uint256"
        }
      ],
      "name": "Transfer",
      "type": "event"
    },
    {
      "inputs": [
        {
          "internalType": "address",
          "name": "to",
          "type": "address"
        },
        {
          "internalType": "uint256",
          "name": "tokenId",
          "type": "uint256"
        }
      ],
      "name": "approve",
      "outputs": [],
      "stateMutability": "nonpayable",
      "type": "function"
    },
    {
      "inputs": [
        {
          "internalType": "address",
          "name": "owner",
          "type": "address"
        }
      ],
      "name": "balanceOf",
      "outputs": [
        {
          "internalType": "uint256",
          "name": "",
          "type": "uint256"
        }
      ],
      "stateMutability": "view",
      "type": "function"
    },
    {
      "inputs": [
        {
          "internalType": "uint256",
          "name": "tokenId",
          "type": "uint256"
        }
      ],
      "name": "getApproved",
      "outputs": [
        {
          "internalType": "address",
          "name": "",
          "type": "address"
        }
      ],
      "stateMutability": "view",
      "type": "function"
    },
    {
      "inputs": [
        {
          "internalType": "address",
          "name": "owner",
          "type": "address"
        },
        {
          "internalType": "address",
          "name": "operator",
          "type": "address"
        }
      ],
      "name": "isApprovedForAll",
      "outputs": [
        {
          "internalType": "bool",
          "name": "",
          "type": "bool"
        }
      ],
      "stateMutability": "view",
      "type": "function"
    },
    {
      "inputs": [
        {
          "internalType": "uint256",
          "name": "tokenId",
          "type": "uint256"
        },
        {
          "internalType": "address",
          "name": "to",
          "type": "address"
        },
        {
          "internalType": "string",
          "name": "uri",
          "type": "string"
        }
      ],
      "name": "mint_icrc99",
      "outputs": [
        {
          "internalType": "uint256",
          "name": "",
          "type": "uint256"
        }
      ],
      "stateMutability": "nonpayable",
      "type": "function"
    },
    {
      "inputs": [],
      "name": "name",
      "outputs": [
        {
          "internalType": "string",
          "name": "",
          "type": "string"
        }
      ],
      "stateMutability": "view",
      "type": "function"
    },
    {
      "inputs": [],
      "name": "owner",
      "outputs": [
        {
          "internalType": "address",
          "name": "",
          "type": "address"
        }
      ],
      "stateMutability": "view",
      "type": "function"
    },
    {
      "inputs": [
        {
          "internalType": "uint256",
          "name": "tokenId",
          "type": "uint256"
        }
      ],
      "name": "ownerOf",
      "outputs": [
        {
          "internalType": "address",
          "name": "",
          "type": "address"
        }
      ],
      "stateMutability": "view",
      "type": "function"
    },
    {
      "inputs": [],
      "name": "renounceOwnership",
      "outputs": [],
      "stateMutability": "nonpayable",
      "type": "function"
    },
    {
      "inputs": [
        {
          "internalType": "address",
          "name": "from",
          "type": "address"
        },
        {
          "internalType": "address",
          "name": "to",
          "type": "address"
        },
        {
          "internalType": "uint256",
          "name": "tokenId",
          "type": "uint256"
        }
      ],
      "name": "safeTransferFrom",
      "outputs": [],
      "stateMutability": "nonpayable",
      "type": "function"
    },
    {
      "inputs": [
        {
          "internalType": "address",
          "name": "from",
          "type": "address"
        },
        {
          "internalType": "address",
          "name": "to",
          "type": "address"
        },
        {
          "internalType": "uint256",
          "name": "tokenId",
          "type": "uint256"
        },
        {
          "internalType": "bytes",
          "name": "data",
          "type": "bytes"
        }
      ],
      "name": "safeTransferFrom",
      "outputs": [],
      "stateMutability": "nonpayable",
      "type": "function"
    },
    {
      "inputs": [
        {
          "internalType": "address",
          "name": "operator",
          "type": "address"
        },
        {
          "internalType": "bool",
          "name": "approved",
          "type": "bool"
        }
      ],
      "name": "setApprovalForAll",
      "outputs": [],
      "stateMutability": "nonpayable",
      "type": "function"
    },
    {
      "inputs": [
        {
          "internalType": "bytes4",
          "name": "interfaceId",
          "type": "bytes4"
        }
      ],
      "name": "supportsInterface",
      "outputs": [
        {
          "internalType": "bool",
          "name": "",
          "type": "bool"
        }
      ],
      "stateMutability": "view",
      "type": "function"
    },
    {
      "inputs": [],
      "name": "symbol",
      "outputs": [
        {
          "internalType": "string",
          "name": "",
          "type": "string"
        }
      ],
      "stateMutability": "view",
      "type": "function"
    },
    {
      "inputs": [
        {
          "internalType": "uint256",
          "name": "tokenId",
          "type": "uint256"
        }
      ],
      "name": "tokenURI",
      "outputs": [
        {
          "internalType": "string",
          "name": "",
          "type": "string"
        }
      ],
      "stateMutability": "view",
      "type": "function"
    },
    {
      "inputs": [
        {
          "internalType": "address",
          "name": "from",
          "type": "address"
        },
        {
          "internalType": "address",
          "name": "to",
          "type": "address"
        },
        {
          "internalType": "uint256",
          "name": "tokenId",
          "type": "uint256"
        }
      ],
      "name": "transferFrom",
      "outputs": [],
      "stateMutability": "nonpayable",
      "type": "function"
    },
    {
      "inputs": [
        {
          "internalType": "address",
          "name": "newOwner",
          "type": "address"
        }
      ],
      "name": "transferOwnership",
      "outputs": [],
      "stateMutability": "nonpayable",
      "type": "function"
    }
  ],
  "bytecode": "0x60806040523480156200001157600080fd5b50604051620017e8380380620017e88339810160408190526200003491620001b1565b3382826000620000458382620002aa565b506001620000548282620002aa565b5050506001600160a01b0381166200008657604051631e4fbdf760e01b81526000600482015260240160405180910390fd5b62000091816200009a565b50505062000376565b600780546001600160a01b038381166001600160a01b0319831681179093556040519116919082907f8be0079c531659141344cd1fd0a4f28419497f9722a3daafe3b4186f6b6457e090600090a35050565b634e487b7160e01b600052604160045260246000fd5b600082601f8301126200011457600080fd5b81516001600160401b0380821115620001315762000131620000ec565b604051601f8301601f19908116603f011681019082821181831017156200015c576200015c620000ec565b816040528381526020925086838588010111156200017957600080fd5b600091505b838210156200019d57858201830151818301840152908201906200017e565b600093810190920192909252949350505050565b60008060408385031215620001c557600080fd5b82516001600160401b0380821115620001dd57600080fd5b620001eb8683870162000102565b935060208501519150808211156200020257600080fd5b50620002118582860162000102565b9150509250929050565b600181811c908216806200023057607f821691505b6020821081036200025157634e487b7160e01b600052602260045260246000fd5b50919050565b601f821115620002a557600081815260208120601f850160051c81016020861015620002805750805b601f850160051c820191505b81811015620002a1578281556001016200028c565b5050505b505050565b81516001600160401b03811115620002c657620002c6620000ec565b620002de81620002d784546200021b565b8462000257565b602080601f831160018114620003165760008415620002fd5750858301515b600019600386901b1c1916600185901b178555620002a1565b600085815260208120601f198616915b82811015620003475788860151825594840194600190910190840162000326565b5085821015620003665787850151600019600388901b60f8161c191681555b5050505050600190811b01905550565b61146280620003866000396000f3fe608060405234801561001057600080fd5b506004361061010b5760003560e01c806370a08231116100a2578063a22cb46511610071578063a22cb4651461021b578063b88d4fde1461022e578063c87b56dd14610241578063e985e9c514610254578063f2fde38b1461026757600080fd5b806370a08231146101e7578063715018a6146101fa5780638da5cb5b1461020257806395d89b411461021357600080fd5b8063095ea7b3116100de578063095ea7b31461019957806323b872dd146101ae57806342842e0e146101c15780636352211e146101d457600080fd5b806301ffc9a71461011057806302684a5c1461013857806306fdde0314610159578063081812fc1461016e575b600080fd5b61012361011e366004610f4b565b61027a565b60405190151581526020015b60405180910390f35b61014b610146366004611010565b6102a5565b60405190815260200161012f565b610161610323565b60405161012f91906110cb565b61018161017c3660046110de565b6103b5565b6040516001600160a01b03909116815260200161012f565b6101ac6101a73660046110f7565b6103de565b005b6101ac6101bc366004611121565b6103ed565b6101ac6101cf366004611121565b610478565b6101816101e23660046110de565b610498565b61014b6101f536600461115d565b6104a3565b6101ac6104eb565b6007546001600160a01b0316610181565b6101616104ff565b6101ac610229366004611178565b61050e565b6101ac61023c3660046111b4565b610519565b61016161024f3660046110de565b610531565b610123610262366004611230565b610642565b6101ac61027536600461115d565b610670565b60006001600160e01b03198216632483248360e11b148061029f575061029f826106ae565b92915050565b6007546000906001600160a01b031633146103075760405162461bcd60e51b815260206004820152601f60248201527f4552433732313a204f6e6c7920746865206f776e65722063616e206d696e740060448201526064015b60405180910390fd5b61031183856106fe565b61031b8483610718565b509192915050565b60606000805461033290611263565b80601f016020809104026020016040519081016040528092919081815260200182805461035e90611263565b80156103ab5780601f10610380576101008083540402835291602001916103ab565b820191906000526020600020905b81548152906001019060200180831161038e57829003601f168201915b5050505050905090565b60006103c082610768565b506000828152600460205260409020546001600160a01b031661029f565b6103e98282336107a1565b5050565b6001600160a01b03821661041757604051633250574960e11b8152600060048201526024016102fe565b60006104248383336107ae565b9050836001600160a01b0316816001600160a01b031614610472576040516364283d7b60e01b81526001600160a01b03808616600483015260248201849052821660448201526064016102fe565b50505050565b61049383838360405180602001604052806000815250610519565b505050565b600061029f82610768565b60006001600160a01b0382166104cf576040516322718ad960e21b8152600060048201526024016102fe565b506001600160a01b031660009081526003602052604090205490565b6104f36108a7565b6104fd60006108d4565b565b60606001805461033290611263565b6103e9338383610926565b6105248484846103ed565b61047233858585856109c5565b606061053c82610768565b506000828152600660205260408120805461055690611263565b80601f016020809104026020016040519081016040528092919081815260200182805461058290611263565b80156105cf5780601f106105a4576101008083540402835291602001916105cf565b820191906000526020600020905b8154815290600101906020018083116105b257829003601f168201915b5050505050905060006105ed60408051602081019091526000815290565b905080516000036105ff575092915050565b81511561063157808260405160200161061992919061129d565b60405160208183030381529060405292505050919050565b61063a84610af0565b949350505050565b6001600160a01b03918216600090815260056020908152604080832093909416825291909152205460ff1690565b6106786108a7565b6001600160a01b0381166106a257604051631e4fbdf760e01b8152600060048201526024016102fe565b6106ab816108d4565b50565b60006001600160e01b031982166380ac58cd60e01b14806106df57506001600160e01b03198216635b5e139f60e01b145b8061029f57506301ffc9a760e01b6001600160e01b031983161461029f565b6103e9828260405180602001604052806000815250610b65565b60008281526006602052604090206107308282611312565b506040518281527ff8e1a15aba9398e019f0b49df1a4fde98ee17ae345cb5f6b5e2c27f5033e8ce79060200160405180910390a15050565b6000818152600260205260408120546001600160a01b03168061029f57604051637e27328960e01b8152600481018490526024016102fe565b6104938383836001610b7d565b6000828152600260205260408120546001600160a01b03908116908316156107db576107db818486610c83565b6001600160a01b03811615610819576107f8600085600080610b7d565b6001600160a01b038116600090815260036020526040902080546000190190555b6001600160a01b03851615610848576001600160a01b0385166000908152600360205260409020805460010190555b60008481526002602052604080822080546001600160a01b0319166001600160a01b0389811691821790925591518793918516917fddf252ad1be2c89b69c2b068fc378daa952ba7f163c4a11628f55a4df523b3ef91a4949350505050565b6007546001600160a01b031633146104fd5760405163118cdaa760e01b81523360048201526024016102fe565b600780546001600160a01b038381166001600160a01b0319831681179093556040519116919082907f8be0079c531659141344cd1fd0a4f28419497f9722a3daafe3b4186f6b6457e090600090a35050565b6001600160a01b03821661095857604051630b61174360e31b81526001600160a01b03831660048201526024016102fe565b6001600160a01b03838116600081815260056020908152604080832094871680845294825291829020805460ff191686151590811790915591519182527f17307eab39ab6107e8899845ad3d59bd9653f200f220920489ca2b5937696c31910160405180910390a3505050565b6001600160a01b0383163b15610ae957604051630a85bd0160e11b81526001600160a01b0384169063150b7a0290610a079088908890879087906004016113d2565b6020604051808303816000875af1925050508015610a42575060408051601f3d908101601f19168201909252610a3f9181019061140f565b60015b610aab573d808015610a70576040519150601f19603f3d011682016040523d82523d6000602084013e610a75565b606091505b508051600003610aa357604051633250574960e11b81526001600160a01b03851660048201526024016102fe565b805181602001fd5b6001600160e01b03198116630a85bd0160e11b14610ae757604051633250574960e11b81526001600160a01b03851660048201526024016102fe565b505b5050505050565b6060610afb82610768565b506000610b1360408051602081019091526000815290565b90506000815111610b335760405180602001604052806000815250610b5e565b80610b3d84610ce7565b604051602001610b4e92919061129d565b6040516020818303038152906040525b9392505050565b610b6f8383610d7a565b6104933360008585856109c5565b8080610b9157506001600160a01b03821615155b15610c53576000610ba184610768565b90506001600160a01b03831615801590610bcd5750826001600160a01b0316816001600160a01b031614155b8015610be05750610bde8184610642565b155b15610c095760405163a9fbf51f60e01b81526001600160a01b03841660048201526024016102fe565b8115610c515783856001600160a01b0316826001600160a01b03167f8c5be1e5ebec7d5bd14f71427d1e84f3dd0314c0f7b2291e5b200ac8c7c3b92560405160405180910390a45b505b5050600090815260046020526040902080546001600160a01b0319166001600160a01b0392909216919091179055565b610c8e838383610dfa565b610493576001600160a01b038316610cbc57604051637e27328960e01b8152600481018290526024016102fe565b60405163177e802f60e01b81526001600160a01b0383166004820152602481018290526044016102fe565b60606000610cf483610e5d565b600101905060008167ffffffffffffffff811115610d1457610d14610f84565b6040519080825280601f01601f191660200182016040528015610d3e576020820181803683370190505b5090508181016020015b600019016f181899199a1a9b1b9c1cb0b131b232b360811b600a86061a8153600a8504945084610d4857509392505050565b6001600160a01b038216610da457604051633250574960e11b8152600060048201526024016102fe565b6000610db2838360006107ae565b9050610dc66007546001600160a01b031690565b6001600160a01b0316336001600160a01b031614610493576040516339e3563760e11b8152600060048201526024016102fe565b60006001600160a01b0383161580159061063a5750826001600160a01b0316846001600160a01b03161480610e345750610e348484610642565b8061063a5750506000908152600460205260409020546001600160a01b03908116911614919050565b60008072184f03e93ff9f4daa797ed6e38ed64bf6a1f0160401b8310610e9c5772184f03e93ff9f4daa797ed6e38ed64bf6a1f0160401b830492506040015b6d04ee2d6d415b85acef81000000008310610ec8576d04ee2d6d415b85acef8100000000830492506020015b662386f26fc100008310610ee657662386f26fc10000830492506010015b6305f5e1008310610efe576305f5e100830492506008015b6127108310610f1257612710830492506004015b60648310610f24576064830492506002015b600a831061029f5760010192915050565b6001600160e01b0319811681146106ab57600080fd5b600060208284031215610f5d57600080fd5b8135610b5e81610f35565b80356001600160a01b0381168114610f7f57600080fd5b919050565b634e487b7160e01b600052604160045260246000fd5b600067ffffffffffffffff80841115610fb557610fb5610f84565b604051601f8501601f19908116603f01168101908282118183101715610fdd57610fdd610f84565b81604052809350858152868686011115610ff657600080fd5b858560208301376000602087830101525050509392505050565b60008060006060848603121561102557600080fd5b8335925061103560208501610f68565b9150604084013567ffffffffffffffff81111561105157600080fd5b8401601f8101861361106257600080fd5b61107186823560208401610f9a565b9150509250925092565b60005b8381101561109657818101518382015260200161107e565b50506000910152565b600081518084526110b781602086016020860161107b565b601f01601f19169290920160200192915050565b602081526000610b5e602083018461109f565b6000602082840312156110f057600080fd5b5035919050565b6000806040838503121561110a57600080fd5b61111383610f68565b946020939093013593505050565b60008060006060848603121561113657600080fd5b61113f84610f68565b925061114d60208501610f68565b9150604084013590509250925092565b60006020828403121561116f57600080fd5b610b5e82610f68565b6000806040838503121561118b57600080fd5b61119483610f68565b9150602083013580151581146111a957600080fd5b809150509250929050565b600080600080608085870312156111ca57600080fd5b6111d385610f68565b93506111e160208601610f68565b925060408501359150606085013567ffffffffffffffff81111561120457600080fd5b8501601f8101871361121557600080fd5b61122487823560208401610f9a565b91505092959194509250565b6000806040838503121561124357600080fd5b61124c83610f68565b915061125a60208401610f68565b90509250929050565b600181811c9082168061127757607f821691505b60208210810361129757634e487b7160e01b600052602260045260246000fd5b50919050565b600083516112af81846020880161107b565b8351908301906112c381836020880161107b565b01949350505050565b601f82111561049357600081815260208120601f850160051c810160208610156112f35750805b601f850160051c820191505b81811015610ae7578281556001016112ff565b815167ffffffffffffffff81111561132c5761132c610f84565b6113408161133a8454611263565b846112cc565b602080601f831160018114611375576000841561135d5750858301515b600019600386901b1c1916600185901b178555610ae7565b600085815260208120601f198616915b828110156113a457888601518255948401946001909101908401611385565b50858210156113c25787850151600019600388901b60f8161c191681555b5050505050600190811b01905550565b6001600160a01b03858116825284166020820152604081018390526080606082018190526000906114059083018461109f565b9695505050505050565b60006020828403121561142157600080fd5b8151610b5e81610f3556fea26469706673582212204fd0531b660445db96370b9af98b9cc3ac755c841de1ce0759cd1fa6549dc54364736f6c63430008140033"
}